:100000000C9462000C948A000C948A000C948A0070
:100010000C948A000C948A000C948A000C948A0038
:100020000C948A000C948A000C948A000C948A0028
:100030000C948A000C948A000C948A000C948A0018
:100040000C9404050C948A000C94D2040C94AC0417
:100050000C948A000C948A000C948A000C948A00F8
:100060000C948A000C948A000000000024002700F1
:100070002A0000000000250028002B0000000000DE
:1000800023002600290004040404040404040202DA
:100090000202020203030303030301020408102007
:1000A0004080010204081020010204081020000012
:1000B0000008000201000003040700000000000027
:1000C00000004E0511241FBECFEFD8E0DEBFCDBF2C
:1000D00011E0A0E0B1E0EEE7F4E102C005900D927E
:1000E000A639B107D9F722E0A6E9B1E001C01D9217
:1000F000A835B207E1F710E0C2E6D0E004C02197CE
:10010000FE010E94370AC136D107C9F70E9498053F
:100110000C943D0A0C940000AF92BF92CF92DF92F4
:10012000EF92FF920F931F93CF93DF936C017B01AC
:100130008B01040F151FEB015E01AE18BF08C0173D
:10014000D10759F06991D601ED91FC910190F081B0
:10015000E02DC6010995892B79F7C501DF91CF9173
:100160001F910F91FF90EF90DF90CF90BF90AF90D5
:100170000895FC01538D448D252F30E0842F90E0AD
:10018000821B930B541710F0CF9608950197089592
:10019000FC01918D828D981761F0A28DAE0FBF2F5B
:1001A000B11D5D968C91928D9F5F9F73928F90E0B1
:1001B00008958FEF9FEF0895FC01918D828D981720
:1001C00031F0828DE80FF11D858D90E008958FEF5D
:1001D0009FEF0895FC01918D228D892F90E0805C26
:1001E0009F4F821B91098F739927089583EA91E0AD
:1001F0000E94EA0021E0892B09F420E0822F089573
:1002000080E090E0892B29F00E94F60081110C9487
:1002100000000895FC01A48DA80FB92FB11DA35AA9
:10022000BF4F2C91848D90E001968F739927848F16
:10023000A689B7892C93A089B1898C918370806439
:100240008C93938D848D981306C00288F389E02DDA
:1002500080818F7D80830895EF92FF920F931F938B
:10026000CF93DF93EC0181E0888F9B8D8C8D981369
:100270001AC0E889F989808185FF15C09FB7F89475
:10028000EE89FF896083E889F989808183708064C1
:1002900080839FBF81E090E0DF91CF911F910F910C
:1002A000FF90EF900895F62E0B8D10E00F5F1F4F1B
:1002B0000F731127E02E8C8D8E110CC00FB607FC2A
:1002C000FACFE889F989808185FFF5CFCE010E94B8
:1002D0000A01F1CFEB8DEC0FFD2FF11DE35AFF4F1B
:1002E000F0829FB7F8940B8FEA89FB898081806246
:1002F000CFCFCF93DF93EC01888D8823B9F0AA8903
:10030000BB89E889F9898C9185FD03C0808186FDD0
:100310000DC00FB607FCF7CF8C9185FFF2CF80811F
:1003200085FFEDCFCE010E940A01E9CFDF91CF9189
:100330000895833081F028F4813099F08230A9F05B
:1003400008958730A9F08830C9F08430B1F48091E5
:1003500080008F7D03C0809180008F778093800024
:10036000089584B58F7784BD089584B58F7DFBCFC4
:100370008091B0008F778093B00008958091B00095
:100380008F7DF9CFCF93DF93282F30E0F901E2552D
:10039000FF4F8491F901E656FF4FD491F901EA57D6
:1003A000FF4FC491CC23A1F081110E949901EC2F41
:1003B000F0E0EE0FFF1FE458FF4FA591B491EC91D0
:1003C000ED2381E090E009F480E0DF91CF91089582
:1003D00080E090E0FACF1F93CF93DF93282F30E097
:1003E000F901E255FF4F8491F901E656FF4FD49190
:1003F000F901EA57FF4FC491CC23A9F0162F8111C0
:100400000E949901EC2FF0E0EE0FFF1FEE58FF4F16
:10041000A591B4918FB7F894EC91111108C0D095C3
:10042000DE23DC938FBFDF91CF911F910895DE2BE8
:10043000F8CFCF93DF9390E0FC01E656FF4F249175
:100440008A579F4FFC0184918823D1F090E0880F58
:10045000991FFC01E859FF4FA591B491FC01EE589A
:10046000FF4FC591D49161110EC09FB7F8948C9144
:10047000E22FE0958E238C932881E223E8839FBFAF
:10048000DF91CF9108958FB7F894EC91E22BEC9324
:100490008FBFF6CF8E50806480937C0080917A006D
:1004A000806480937A0080917A0086FDFCCF8091F1
:1004B00078009091790008953FB7F89480919B015E
:1004C00090919C01A0919D01B0919E0126B5A89BA1
:1004D00005C02F3F19F00196A11DB11D3FBFBA2FD6
:1004E000A92F982F8827BC01CD01620F711D811D96
:1004F000911D42E0660F771F881F991F4A95D1F71B
:1005000008958F929F92AF92BF92CF92DF92EF9217
:10051000FF924B015C010E945C026B017C010E9416
:100520005C026C197D098E099F09683E7340810544
:100530009105A8F321E0821A9108A108B10888EE7C
:10054000C80E83E0D81EE11CF11C81149104A104A3
:10055000B10429F7FF90EF90DF90CF90BF90AF905C
:100560009F908F900895089590E080E00895CF9334
:10057000DF93EC0160E08E810E94EB0161E08E81EF
:100580000E94EB0160E08E810E94EB018BE891E01C
:100590000197F1F7DF91CF910895CF92DF92EF921B
:1005A000FF920F931F93CF93DF936C017C0187E041
:1005B000E80EF11CD0E0C0E0062F10E0B8010C2ED0
:1005C00002C0759567950A94E2F76170F701819111
:1005D0007F010E94EB012196C430D10579F7C60155
:1005E000DF91CF911F910F91FF90EF90DF90CF900F
:1005F0000C94B702CF92DF92EF92FF920F931F936A
:10060000CF93DF93EC01F62E642F8C810E94EB01D7
:100610008D818F3F19F060E00E94EB010F2D10E0FB
:100620008F8584FF25C06E0187E0C80ED11CF12C98
:10063000E12CB8010E2C02C0759567950A94E2F77B
:100640006170F60181916F010E94EB01FFEFEF1ADB
:10065000FF0A88E0E816F10461F7CE01DF91CF913F
:100660001F910F91FF90EF90DF90CF900C94B70205
:10067000B80184E0759567958A95E1F7CE010E94EF
:10068000CD026F2DCE01DF91CF911F910F91FF9081
:10069000EF90DF90CF900C94CD0240E0682F80E483
:1006A00092E00C94FA0281E00E944D038BE39FE1FB
:1006B0000197F1F70895CF93DF93823029F4909159
:1006C0004F02986090934F0280935302109254020D
:1006D00080E48093550280E18093560280E5809308
:1006E000570261E0809144020E9419028091450204
:1006F0008F3F19F061E00E94190261E0809146028B
:100700000E941902C0E4D2E09E0120543240809140
:100710004F0284FD0BC084E090E021962817390732
:1007200044F461E08E810E941902EECF88E090E0EF
:10073000F4CF8BE39DE00197F1F760E080914402F4
:100740000E94EB0160E0809146020E94EB018091E3
:1007500045028F3F19F060E00E94EB0180914F024B
:1007600084FD34C063E080E492E00E94CD02CBE4DB
:10077000D6E4CE010197F1F763E080E492E00E94B5
:10078000CD022197F1F763E080E492E00E94CD0270
:1007900083E592E00197F1F762E080E492E00E9445
:1007A000CD0280914F0280620E944D0384E08093CD
:1007B00050028CE00E944D030E94530382E080931C
:1007C000510286E0DF91CF910C944D0380620E942C
:1007D0004D038BE496E40197F1F780914F0280621C
:1007E0000E944D0383E592E00197F1F780914F025B
:1007F00080620E944D03D5CF90915302891710F06B
:100800008FEF890FE82FF0E0E05CFD4F848980686E
:100810000C944D0341E00E94FA0281E090E00895BB
:10082000FB0101900020E9F73197AF01461B570B00
:10083000DC01ED91FC910280F381E02D09944F924F
:100840005F926F927F928F929F92AF92BF92CF9260
:10085000DF92EF92FF920F931F93CF93DF93CDB769
:10086000DEB7A1970FB6F894DEBF0FBECDBF8C01E7
:100870006B01770FEE08FF08F7FE49C0DC01ED9130
:10088000FC910190F081E02D6DE209955C01222739
:100890003327A9012C193D094E095F0919A2FE0150
:1008A000B1967F019AE0492E512C612C712CCA011E
:1008B000B901A30192010E94010A605DD7016E9304
:1008C0007D01211531054105510589F790E080E052
:1008D000109721F0BD01C8010E9410048A0D9B1DD4
:1008E000A1960FB6F894DEBF0FBECDBFDF91CF91BA
:1008F0001F910F91FF90EF90DF90CF90BF90AF903E
:100900009F908F907F906F905F904F900895A70178
:10091000960119A2FE01B1967F018AE0882E912CE2
:10092000A12CB12CCA01B901A50194010E94010AB0
:10093000605DD7016E937D0121153105410551059B
:1009400089F790E080E0109759F2BD01C8010E943C
:100950001004C6CF0C9410041F920F920FB60F9282
:1009600011242F933F934F935F936F937F938F93B4
:100970009F93AF93BF93EF93FF9383EA91E00E941D
:100980000A01FF91EF91BF91AF919F918F917F915C
:100990006F915F914F913F912F910F900FBE0F90EC
:1009A0001F9018951F920F920FB60F9211242F933C
:1009B0008F939F93EF93FF93E091B301F091B40174
:1009C0008081E091B901F091BA0182FD1BC0908154
:1009D0008091BC018F5F8F732091BD01821741F020
:1009E000E091BC01F0E0ED55FE4F958F8093BC0186
:1009F000FF91EF919F918F912F910F900FBE0F90CC
:100A00001F9018958081F4CF1F920F920FB60F920E
:100A100011242F933F938F939F93AF93BF93809114
:100A2000970190919801A0919901B0919A0130910C
:100A3000960123E0230F2D3758F50196A11DB11D16
:100A4000209396018093970190939801A093990128
:100A5000B0939A0180919B0190919C01A0919D017E
:100A6000B0919E010196A11DB11D80939B019093B1
:100A70009C01A0939D01B0939E01BF91AF919F9166
:100A80008F913F912F910F900FBE0F901F9018954F
:100A900026E8230F0296A11DB11DD2CFE3EAF1E0B3
:100AA0001382128288EE93E0A0E0B0E08483958305
:100AB000A683B78384E091E09183808385EC90E006
:100AC0009587848784EC90E09787868780EC90E018
:100AD000918B808B81EC90E0938B828B82EC90E009
:100AE000958B848B86EC90E0978B868B118E128E83
:100AF000138E148EE0E4F2E01382128286E191E01C
:100B00009183808382E084838FEF858383E0868373
:100B100084E0878385E0808786E0818787E082871D
:100B20001386148615861686178681E00C945B035F
:100B3000789484B5826084BD84B5816084BD85B5B8
:100B4000826085BD85B5816085BD80916E008160C4
:100B500080936E001092810080918100826080936A
:100B6000810080918100816080938100809180006C
:100B70008160809380008091B10084608093B10097
:100B80008091B00081608093B00080917A00846091
:100B900080937A0080917A00826080937A008091BD
:100BA0007A00816080937A0080917A0080688093D7
:100BB0007A001092C100E091B301F091B40182E09B
:100BC0008083E091AF01F091B0011082E091B1011A
:100BD000F091B2018FEC80831092BB01E091B701DC
:100BE000F091B80186E08083E091B501F091B60103
:100BF000808180618083E091B501F091B6018081B0
:100C000088608083E091B501F091B60180818068B1
:100C10008083E091B501F091B60180818F7D808362
:100C200082E00E945B0360E08EE00E94190261E0B6
:100C30008CE00E94190261E08BE00E94190260E0E2
:100C40008AE00E94190260E089E00E94190260E0D7
:100C500088E00E94190289E0582E95E0692E712CD7
:100C600020E0822E20E0922E8EE00E944A02EC01CB
:100C700080E10E944A026C0182E10E944A028C01DA
:100C80008FE00E944A025C0181E10E944A027C01DD
:100C900061E082E00E94EB0161E08DE00E94EB01E7
:100CA00060E08BE00E94EB0160E08CE00E94EB01D1
:100CB00061E070E080E090E00E94810261E08BE002
:100CC0000E94EB0161E08CE00E94EB01BE01DD0FB0
:100CD000880B990B0E94F40820E030E040EA50E4D1
:100CE0000E94800920E030E040E05FE30E94DD07E1
:100CF00020E030E048EC52E40E94800920E030E03F
:100D000048E452E40E94DE0720E030E04AE754E481
:100D10000E944A0820E030E040E85FE30E94DD07DF
:100D20000E94BC087093A2016093A101569E90019D
:100D3000579E300D1124C901B3010E94ED09605E78
:100D40007F4F7093A00160939F018BE00E94C201CE
:100D5000019709F588E00E94C2010197E1F40E9421
:100D6000530380E00E94FC036EE171E080E492E0B6
:100D70000E94AA0481E00E94FC036091A10170918D
:100D8000A20180E492E00E941F046AEF70E080E01C
:100D900090E00E9481028CE00E94C201019709F557
:100DA00088E00E94C2010197E1F40E94530380E0B1
:100DB0000E94FC036DE271E080E492E00E94AA04CC
:100DC00081E00E94FC0360919F017091A00180E48A
:100DD00092E00E941F046AEF70E080E090E00E94C1
:100DE000810289E00E94C2010197F1F48CE00E9427
:100DF000C2010197C9F40E94530380E00E94FC03E2
:100E00006DE371E080E492E00E94AA0481E00E9418
:100E1000FC03B60180E492E00E941F046AEF70E0D8
:100E200080E090E00E9481028BE00E94C201019765
:100E3000F1F489E00E94C2010197C9F40E945303B2
:100E400080E00E94FC036CE471E080E492E00E9488
:100E5000AA0481E00E94FC03B80180E492E00E94B1
:100E60001F046AEF70E080E090E00E9481028AE057
:100E70000E94C2010197F1F48CE00E94C201019727
:100E8000C9F40E94530380E00E94FC0367E571E00F
:100E900080E492E00E94AA0481E00E94FC03B70172
:100EA00080E492E00E941F046AEF70E080E090E02E
:100EB0000E9481028AE00E94C2010197F1F48BE056
:100EC0000E94C2010197C9F40E94530380E00E946E
:100ED000FC0365E671E080E492E00E94AA0481E0F0
:100EE0000E94FC03B50180E492E00E941F046AEFB7
:100EF00070E080E090E00E94810267E771E083EAA1
:100F000091E00E94AA04B50183EA91E00E941F04C7
:100F10006BE771E083EA91E00E94AA04B60183EADC
:100F200091E00E941F046FE771E083EA91E00E9464
:100F3000AA04B70183EA91E00E941F0463E871E00C
:100F400083EA91E00E94AA04B80183EA91E00E943A
:100F50001F0467E871E083EA91E00E94AA046091AF
:100F6000A1017091A20183EA91E00E941F046BE845
:100F700071E083EA91E00E94AA0460919F01709160
:100F8000A00183EA91E00E941F046FE871E083EA08
:100F900091E00E94AA0463E971E083EA91E00E9473
:100FA000AA048114910409F45FCE0E94F6008823FC
:100FB00009F45ACE0E94000057CE5058BB27AA27EA
:100FC0000E94F5070C9446090E94380938F00E94E7
:100FD0003F0920F039F49F3F19F426F40C943509A9
:100FE0000EF4E095E7FB0C942F09E92F0E945709B6
:100FF00058F3BA17620773078407950720F079F44E
:10100000A6F50C9479090EF4E0950B2EBA2FA02DBD
:101010000B01B90190010C01CA01A0011124FF27A5
:10102000591B99F0593F50F4503E68F11A16F040A0
:10103000A22F232F342F4427585FF3CF469537959F
:101040002795A795F0405395C9F77EF41F16BA0B64
:10105000620B730B840BBAF09150A1F0FF0FBB1F12
:10106000661F771F881FC2F70EC0BA0F621F731F5B
:10107000841F48F4879577956795B795F7959E3FB8
:1010800008F0B0CF9395880F08F09927EE0F979549
:10109000879508950E945E080C9446090E943F09B6
:1010A00058F00E94380940F029F45F3F29F00C9471
:1010B0002F0951110C947A090C9435090E94570993
:1010C00068F39923B1F3552391F3951B550BBB2777
:1010D000AA2762177307840738F09F5F5F4F220FBC
:1010E000331F441FAA1FA9F335D00E2E3AF0E0E8B3
:1010F00032D091505040E695001CCAF72BD0FE2FFD
:1011000029D0660F771F881FBB1F26173707480790
:10111000AB07B0E809F0BB0B802DBF01FF27935848
:101120005F4F3AF09E3F510578F00C942F090C94D4
:101130007A095F3FE4F3983ED4F3869577956795F7
:10114000B795F7959F5FC9F7880F911D969587957D
:1011500097F90895E1E0660F771F881FBB1F62179C
:1011600073078407BA0720F0621B730B840BBA0B5A
:10117000EE1F88F7E09508950E94C3086894B111A6
:101180000C947A0908950E945F0988F09F5798F09F
:10119000B92F9927B751B0F0E1F0660F771F881F7C
:1011A000991F1AF0BA95C9F714C0B13091F00E9496
:1011B0007909B1E008950C947909672F782F882771
:1011C000B85F39F0B93FCCF3869577956795B395BD
:1011D000D9F73EF490958095709561957F4F8F4F2C
:1011E0009F4F0895E89409C097FB3EF49095809531
:1011F000709561957F4F8F4F9F4F9923A9F0F92FDD
:1012000096E9BB279395F695879577956795B7955A
:10121000F111F8CFFAF4BB0F11F460FF1BC06F5F40
:101220007F4F8F4F9F4F16C0882311F096E911C052
:10123000772321F09EE8872F762F05C0662371F073
:1012400096E8862F70E060E02AF09A95660F771F87
:10125000881FDAF7880F9695879597F9089597F97B
:101260009F6780E870E060E008959FEF80EC08954C
:1012700000240A9416161706180609060895002475
:101280000A9412161306140605060895092E0394EF
:10129000000C11F4882352F0BB0F40F4BF2B11F463
:1012A00060FF04C06F5F7F4F8F4F9F4F089557FDC2
:1012B0009058440F551F59F05F3F71F04795880FC4
:1012C00097FB991F61F09F3F79F08795089512165B
:1012D00013061406551FF2CF4695F1DF08C0161607
:1012E00017061806991FF1CF8695710561050894B8
:1012F0000895E894BB2766277727CB0197F90895CF
:101300000E9493090C9446090E94380938F00E9403
:101310003F0920F0952311F00C942F090C94350906
:1013200011240C947A090E94570970F3959FC1F318
:10133000950F50E0551F629FF001729FBB27F00D83
:10134000B11D639FAA27F00DB11DAA1F649F6627D8
:10135000B00DA11D661F829F2227B00DA11D621F27
:10136000739FB00DA11D621F839FA00D611D221FE1
:10137000749F3327A00D611D231F849F600D211DC5
:10138000822F762F6A2F11249F5750409AF0F1F048
:1013900088234AF0EE0FFF1FBB1F661F771F881FB1
:1013A00091505040A9F79E3F510580F00C942F09B1
:1013B0000C947A095F3FE4F3983ED4F386957795D1
:1013C0006795B795F795E7959F5FC1F7FE2B880F57
:1013D000911D9695879597F9089597FB072E16F41A
:1013E000009407D077FD09D00E94230A07FC05D09E
:1013F0003EF4909581959F4F0895709561957F4F2C
:101400000895A1E21A2EAA1BBB1BFD010DC0AA1F45
:10141000BB1FEE1FFF1FA217B307E407F50720F05D
:10142000A21BB30BE40BF50B661F771F881F991FD8
:101430001A9469F760957095809590959B01AC0121
:10144000BD01CF010895AA1BBB1B51E107C0AA1F14
:10145000BB1FA617B70710F0A61BB70B881F991F55
:101460005A95A9F780959095BC01CD010895EE0F8E
:0E147000FF1F0590F491E02D0994F894FFCF32
:10147E00000000002C018C00B9007901EA00C800C0
:10148E00DC00000000000A048C00B402B3025465B4
:10149E006D706572617475726520433A0054656DA6
:1014AE00706572617475726520463A2000416972EA
:1014BE002050726573737572653A200048756D69B8
:1014CE00646974793A20005761746572204C6576B0
:1014DE00656C3A200057696E642053706565642010
:1014EE006B6D2F683A2000777370002C6170002CA2
:1014FE00776C002C6875002C7463002C7466007970
:06150E006173000A0000F9
:00000001FF
